@ba15 ; Affinity 
@bb01 ; MemBank 
@bc03 ; Command 
; ***************************************** 
; E15F0001 
; Firmware_12_LEDs_500ns 
; Tue 10/29/2024 
; ***************************************** 
:020000020A00F2
:100000008AC0000081E084C082E082C083E080C0BA
:1000100084E07EC085E07CC086E07AC087E078C05E
:1000200088E076C089E074C08AE072C08BE070C05E
:100030008CE06EC038C300008EE06AC08FE068C0FC
:1000400080E166C081E164C082E162C083E160C09A
:1000500084E15EC085E15CC086E15AC087E158C09A
:1000600088E156C089E154C08AE152C08BE150C09A
:100070008CE14EC09EC200008EE14AC08FE148C0B4
:1000800080E246C081E244C082E242C083E240C0D6
:1000900084E23EC085E23CC086E23AC087E238C0D6
:1000A00088E236C089E234C08AE232C08BE230C0D6
:1000B0008CE22EC08DE22CC08EE22AC08FE228C0D6
:1000C00080E326C081E324C082E322C083E320C012
:1000D00084E31EC085E31CC086E31AC087E318C012
:1000E00088E316C089E314C08AE312C08BE310C012
:1000F0008CE30EC08DE30CC08EE30AC08FE308C012
:1001000001005FE1020100004A35216707D18377D2
:100110000C9481111895F8942224E8EDE0933400B2
:10012000E5E8E0930110E8EDE4BF20921001AAE0B9
:100130004A2EA3E05A2EE0E0F9E6CDE0D1E021928C
:100140002197E9F7A0910101A0FDFCCFA8EDB8E04F
:10015000A0933400B0930001A0915101A0FDFCCF09
:10016000A1E2A0935001A0914101A2FDFCCFA0E02B
:10017000B0E4A0934A01B0934B01AFE0B9E6ADBF44
:10018000BEBFA8EDB4E2A0933400B0936800A5E32D
:10019000A0930006A0E0A0930106ABE0A0930206A6
:1001A000A0E0A0930306A0E0A0930406A0E0A09323
:1001B0000506A2E4A0930806A5E8A093A000E1E448
:1001C000E0931202E3E0E0933F02E0934102A1E0FA
:1001D000A093010BA1E0A093040BACE0B0E0A093CE
:1001E0000C0BB0930D0BA1E0A093000BA1E0A0932A
:1001F000110BA1E0A093150BA1E1A093140BA3EFA9
:10020000B0E0A0931C0BB0931D0BA1E0A093100BCA
:10021000A8E0A093510441984A98429A94D08ED174
:10022000C0E0DAE6E0E0F5E1A5E56A2E6627AC9AE3
:10023000A0910060A33C21F0AA95A0930060C5D2D4
:10024000B2D2C1D2B0D2AC98B8E0519BFECF519996
:10025000FECFBA95D1F7A0910101A0FDFCCFA8ED8A
:10026000BBE0A0933400B09300012CBA12C20C94EE
:1002700010000C9411000C9412000C9413000C94B8
:1002800014000C9415000C9416000C9417000C9498
:1002900018000C9419000C941A000C941B000C9478
:1002A0001C000C941D000C941E000C941F000C9458
:1002B00020000C9421000C9422000C9423000C9438
:1002C00024000C9425000C9426000C9427000C9418
:1002D00028000C9429000C942A000C942B000C94F8
:1002E0002C000C942D000C942E000C942F000C94D8
:1002F00030000C9431000C9432000C9433000C94B8
:1003000034000C9435000C9436000C9437000C9497
:1003100038000C9439000C943A000C943B000C9477
:100320003C000C943D000C943E000C943F000C9457
:1003300040000C9441000C9442000C9443000C9437
:1003400044000C9445007ED0F0991ED0F1991ED047
:10035000F2991FD0F39922D0EEB3E21103C0F89BBB
:10036000F99920D0E4E0E0937004E0937204E09304
:100370007404E0937604E0937104E0937304E093D3
:100380007504E0937704089558D05CC080D06AD09B
:1003900059C0EFEFE093156965D054C020921569FC
:1003A00061D050C020924608A89A00C0A09A07D0F9
:1003B00018D0F9D1E2ECE0934608A09A0895A898E5
:1003C00000C0B3990895A89A00C0B39B0895A89857
:1003D00000C0B3990895A89A00C0B39B0895D4DFD4
:1003E00012C0A89800C0B1990895A89A00C0B19B06
:1003F0000895A89800C0B1990895A89A00C0B19B2B
:100400000895C4DF00C0992782E031978209E9F797
:10041000AC9A82E031978209E9F7AC98A895B39934
:100420009927B19999279A9579F76BCF0090021087
:1004300001FCFCCF00FCFACF089580E322D020928B
:1004400000141EC0E0E0F4E1C4E1D9E613D0E0916D
:100450001469EC3008F0ECE0E09314693E2E3210A1
:100460003A94089583E10DD0E4E1F9E6C0E0D4E1E7
:1004700001D006C080E1019009928A95E1F70895C4
:1004800081E0D4DF9DE994BF80930010CFCFE5E5F4
:100490006E2E6627A5D13324E5E8E093A0003BD07B
:1004A000A4E2B9E6C4ECD4EAE991F5E109959991A1
:1004B00089911AD08E9334D0C83EB1F73092146926
:1004C0002CB808958407057805076C0503600501BD
:1004D0005403054801053C070330030724010318B2
:1004E00003010C0701000107909308068093090699
:1004F00081E080930D0681E080930A0680910D06CD
:1005000080FFFCCF909110068091110697FD839596
:1005100087FD8FE708952092166920921769089544
:10052000853508F4339490911669991F9093166954
:1005300090911769991F9093176908958091156993
:10054000C4E4DBEA8211C2E38211DBEA65D1C6E5CD
:10055000DBEA62D18091146967D1C4E6DBEA5CD141
:10056000C8E1D9E689915ED1C432E1F7C2E7DBEA9E
:1005700053D18091176958D18091166955D161C1C5
:1005800044E0A8E0BFEF409251040090060B0092B7
:10059000060BC0DD0995B3992CBAB1992CBA0CB2EF
:1005A0000A940CBA09F4ADCE20921A0B20921B0BC0
:1005B000F1CFA0935104B0934904ACDDA091060B98
:1005C000A093060B4093A704519BFECF0995009082
:1005D000060B0092060B0694AA1F4093A704519B9A
:1005E000FECF09950090060B0092060B0694AA1FF9
:1005F0004093A704519BFECF09950090060B0092F3
:10060000060B0694AA1F4093A704519BFECF0995A1
:100610000090060B0092060B0694AA1F4093A704B5
:10062000519BFECF09950090060B0092060B069495
:10063000AA1F4093A704519BFECF09950090060B7B
:100640000092060B0694AA1F4093A704519BFECF6D
:100650000995C31599F00090060B0092060B0694BD
:10066000AA1F4093A704519BFECFA9930995A0917F
:10067000060BA093060B4093A704A6CF509230021E
:100680000090060B0092060B0694AA1FA993F894FB
:1006900000C074D078940000F89400C000C000C07E
:1006A00000C00000F6CF0995A0911469A211209214
:1006B0003002A8E0A0935104A895C0E0DAE600005B
:1006C0000995AFEF0000A093A30600901669109063
:1006D000176900C000C0099500FC799000C000C0F7
:1006E00001FC899000C000C0099502FC999000C0EF
:1006F00000C003FCA99000C000C0099504FCB9909B
:1007000000C000C005FCC99000C000C0099506FCEF
:10071000D99000C000C007FCE99000C000C0099556
:1007200010FCF99000C000C011FC099100C000C08D
:10073000099512FC199100C000C013FC299100C05A
:1007400000C00995AFE0B9E6ADBFBEBF00C000C0B4
:1007500000C000C000C00995AEE2A093420800C0EE
:1007600000C000C000C000C0000008D0C0E0DAE651
:100770000090160B0092160B099502CF0995A091D7
:100780004301A0934301A0FF0BC000C000C00000C4
:100790000995A0E1A093A70400C000C000C000001C
:1007A00000C000C00994A2E3B0E003C0A6E9B0E035
:1007B00000C00995009053010092530100FEF9CF4B
:1007C0001197B9F7089509D002C00AD000C0BCE063
:1007D000E0E00995BA95E9F70895C0E0D8EA03C0CA
:1007E000CCE0D8EA00C0799089909990A990B9900E
:1007F000C990D990E990F99009911991299108959A
:10080000000000000000000000000000FFFFFFFFEC
:10081000FFFFFFFFFFFFFFFF8991821115D08211BB
:10082000FBCF089501D00BC08F93829502D08F919A
:1008300000C08F708A3008F0895D805D05C080E25D
:1008400003C0C0E8DBEAE8CF0090440805FEFCCF17
:10085000809342080895FFFFFFFFFFFFFFFFFFFFA8
:100A000000002DB86CB82CB8671531E03DB931E461
:100A100008F43CB9ECE0089500002DB86CB82CB88F
:100A2000681530E43DB931E408F43CB9E8E10895D3
:100A300000002DB86CB82CB8691534E03DB935E02C
:100A400008F43CB9E4E2089500002DB86CB82CB865
:100A50006A1531E03DB935E008F43CB9E0E30895AA
:100A60003FEF3DB96CB82CB86B1534E03DB934E4B8
:100A700008F43CB9ECE308953FEF3DB96CB82CB8ED
:100A80006C1530E43DB934E408F43CB9E8E4089569
:100A90003FEF3DB96CB82CB86D1531E03DB931E18F
:100AA00008F43CB9E4E508953FEF3DB96CB82CB8C3
:100AB0006E1534E03DB934E108F43CB9E0E6089540
:100AC0003FEF3DB96CB82CB86F1530E13DB931E15D
:100AD00008F43CB9ECE608953FEF3DB96CB82CB88A
:100AE000601730E13DB934E108F43CB9E8E7089516
:100AF0003FEF3DB96CB82CB8611730E13DB930E536
:100B000008F43CB9E4E808953FEF3DB96CB82CB85F
:100B1000621730E43DB930E508F43CB9E0E90895E6
:100B20002DB86CB86A95E0E000C000C000C00000BD
:100B300008950D0A0A55736573204441433A2020F5
:100B40006E6F00000D0A0A55736573204441433AE5
:100B50002020796573000D0A4C454420636F756E43
:100B6000743A20000D0A4144435B302D31315D3A27
:100B700020000D0A4C4544206D61736B3A20200023
:100B80000A0D0000150B00000101401500851069D9
:100B900000010103401500851169000101034015A2
:100BA00000851269000101034015008513690001E9
:100BB00000404015008500000002FFFFFFFFFFFF1F
:00000001FF
; 
; *** EOF 
