:020000020000FC
:100000000C9446000C940A020C940A020C94A00171
:10001000C4C1C6C1C8C1CAC1F0C0E9C071C572C5FA
:10002000CAC1C7C1CFC17DC382C307C40AC493C3B9
:100030009DC3A4C337C410C41EC487C37CC380C37C
:10004000B0C4DEC1D2C1D7C120C325C330C331C3C0
:1000500039C345C35CC360C36BC4D0C0D6C062C4DF
:1000600095C39FC37BC3BBC4BCC4BCC4BBC0BAC024
:10007000B9C0B8C0B7C0B6C0B5C08CC1010050E1AE
:1000800000000000C8AC1E66E6BF70E2F8942224AF
:10009000E7E2F9E6EDBFFEBFE0910101E0FDFCCF34
:1000A000E8EDF7E0E4BFF0930001A895E8EDF4E295
:1000B000E4BFF0936800E0914000E0934000EFBBA4
:1000C000E8EDE4BF209201102BBE20B828B82CB870
:1000D00024BAE8EDF0E6E4BFF0931001E0914101AD
:1000E000E211FCCF2092480120924901E1E0E09327
:1000F0004001EFE0E093E205EFE0E093E405E0E0AB
:10010000E093E605E0E0E093E705E0E0E093E80552
:10011000E0E0E093E005E8E0E093B204E093B304AC
:10012000E093B104E093B004E0E4F8E02682A0ECB0
:10013000B0E0A087B187A0E8A583A3E0A783A2ECE5
:10014000A683A398A198AA9AA89AA29AA09AA49AD8
:100150004798F89B06C0E0E0F0E6AFEFA193F836D1
:10016000E8F3E0E0F9E6FB9BF899E0E0FB9BF89907
:10017000F8E62192F038E8F3E0914801F091490166
:10018000F230D0F3E2E033D033D0B39B0BC0009019
:100190000090009429F0C2E0B0D461D409F44DC1BC
:1001A000E1E02EC1E0E0FAE0208221822282238277
:1001B000AFE0A083E0E0FBE020822182AEE6B1E088
:1001C000A487B587A1E0A583A5E0A083A7D2ACD280
:1001D000789409D00DD0C2E687D48FB39927E0E098
:1001E000D4D130C00895E0E002C0EFEF00C0089520
:1001F000E0E003C0E5E501C0EFEF0895E8EDF1E0D0
:10020000E0933400F0934100FFCFA895E8EDE4BF00
:10021000E1E0E0930001FFCFCDD316D39681C1D3A7
:100220000C92BED3CCC3C6D3BBD39781BAD30CD365
:1002300009901C9001100C9211960197C9F7B0D348
:10024000BED30895E7E2F9E6EDBFFEBF222734E012
:10025000EAE29BD1C091006950D43CD1203491F3A3
:1002600024FD10C026FFF9CFE4E0F3E0059000166E
:100270000590159019F4F0010995E4CFE034B1F739
:1002800020FFEBCF003449F7622F6370613029F70C
:1002900020620DD17A3B21F46531A1F62061DDCFDA
:1002A00024FFD0CF7B3B39F4693060F6C62F25D4CC
:1002B000246031E0D2CF7C3B21F422FFC3CF98D120
:1002C000CCCF7F3B51F6603011F40AD0BBCF613008
:1002D00009F40AD0B7CF68E08BC1C02F05D4B2CFE4
:1002E00080D3E0EE52D1AECF7DD3EEEE4ED1AACF89
:1002F0000053E1E00A9512F0EE0FFCCFFEB3FE27AB
:10030000FEBB0895307801317801327801337801ED
:100310003478013578013678013778015313025269
:10032000FA01646B01616D01626D01636D01656DC0
:1003300001666D01736D01756D016C6D0100220127
:10034000EFB64F01E0914408E7FF13C0E72DE6192F
:10035000E03C23FF08F0AA9AE0914108E2FD82C048
:10036000F0E7E72D7090400871927E2EF401EFBE09
:100370001895E091060BE093060B761411F44210E9
:100380004A943A9422F4332EE0E1E093A704F40176
:10039000EFBE1895E0E0F0E00895EDE0F0E008959C
:1003A000E0E5F1EE0895E1E0F0E00895E0E5F1EE3A
:1003B000089503D0A7C301D0A3C3AFE0B0E0C0E16C
:1003C000D1E10895F8DFA193B193C193D193F1DF07
:1003D000A193B193C193D1930895DFEF672C94D08B
:1003E0006710FBCF2197D9F7089517D048F00895EB
:1003F000EBE001C0EAE001DF2092480120924901D0
:10040000A895F894AA98F0E208D0E8F7F6DEF0E4B0
:1004100004D0E8F7E8DEECDEF1CE00904801009071
:100420004901F0150895C091006967D318D3C9F444
:10043000CF3511F0CB35A9F4D0DF209245082092BA
:10044000000A2092000B2092050B20924801209276
:10045000490193D1FE01E050F048F695E795F894F4
:100460000994FBCEF89420924608AA98E8E0BFDEF3
:10047000E5E5C3DEEFEFA89500C000C000C0E211C3
:10048000EA95B19BF8CFE211F5CFC4CF8E2F992713
:10049000B4DEE8E0ACDEE6EA78D0F0911500E2E008
:1004A000F4FDEAE0A4DE32E0672C2ED0F6CF04D0D3
:1004B000702F02D0602F089507D002950F9304D0BB
:1004C0000F900029F00E089505D00F7D075308F412
:1004D000095D089519D0421002C025FDB3CE7614EF
:1004E000C9F3F0E7E62D00816394206442102F7B6E
:1004F00026FD2F7EFBE04F2E21FF23950A3011F0C1
:100500000D3009F42C7F00C00F01A89523FD06C013
:10051000E72DE619E03218F4AA9801C0AA9AF00172
:100520000895019101D003C00F93029501C00F936C
:100530000F70005D0A3308F0095F1BD00F9108951A
:10054000092FF0DF082FEECF0AE013D00DE011C025
:10055000E0E0F1E1E6DFE5DFE4DF0EE20AD029DFEB
:10056000CE01EEDFCD01ECDF26DFCE01E9DFCD01EC
:10057000E7CFD8E1C9DF0090440805FEFBCF219703
:10058000B399C1F7009342080895E0930169FCE034
:10059000E091016905910DBBE0930169002391F0A1
:1005A00012F0E7DFF4CFE9990ED0EA9911D0EB9978
:1005B0001AD0EC99CDDFEE9913D0ED996ED2E8996F
:1005C000C3DFE5CF0895C591E093016996D251C28A
:1005D00000900069109031690AE210100895C9CFA7
:1005E00009E0C7DF48C2EC9BABCFEC980EB39ACFC3
:1005F0006CBBE09976D2E19907D0E39956D2E6999F
:100600001CCFE799F5CE089517D1B7D0C0930269F2
:10061000D09303695FDF20FFFDCF0A33D9F74CDFAA
:10062000502EF02E44DFC0910269D0910369C60FAD
:10063000D71F42DF003031F00130F1F0023069F0B5
:10064000E4E024CFFDD008945208A0F02AD1E5E0E0
:10065000C8F032DF802F0ED1F6CF29DF660F771F6B
:10066000660F771F660F771F660F771F609302690B
:100670007093036903D0CECF5AD100C01DDFF214AE
:1006800011F0E6E003CF0895BBD0C9E4D3E049D030
:100690004EC0A8950895C487D5870895C93008F03D
:1006A000C9E0DCE0CD9FE001CA51D6470895F6DFEE
:1006B000ADC0C083D183C48BD58BCA0FDB1FC2836F
:1006C000D3830895A68FA895C28FD38FD5D020F05D
:1006D000C28DD38D2197B9F70895AA27BB27C48F60
:1006E000D58FEC8FFD8FA895A28FB38FC48DD58D3C
:1006F000FE01B2D048F0C48DD58DFE01BCD020F0F3
:10070000A28DB38D119779F708958FEF79D0868FE9
:10071000A895B2D0E8F70CC1FADFFFCF71D0C4EED4
:10072000D4E0C68BD78B08956BD0CDEED4E0C08FCC
:10073000D18F089565D081D00ED018D0E1C160D09E
:100740007CD009D013D0DEC15BD0F5DF02841384E6
:10075000C015D1050895C489D5890895C489D5895E
:1007600000801180C019D10908954AD0A281B381B7
:1007700004881588A019B109089542D0C081D1819B
:1007800008953ED0C281D38108953AD0008011806F
:10079000C281D381C019D10909F021960024021C1D
:1007A00008957CDFFE0100801180C281D381F2CFE9
:1007B0000C2EC2EFD9E81884101419F02C96C2350B
:1007C000D1F70895DCE0CD9FE001CA51D6470895E6
:1007D000CE01C2EFD9E8088019808015910530F06C
:1007E0000A801B808015910531F028F02C96C235C7
:1007F00091F70894089588940895A0E0B1E70895CA
:10080000E8E2F9E60895FCDFA487B5878CE009905B
:1008100001928A95E1F73C97C481D5812197C095D3
:10082000D095C28BD38BC081D181C687D787C08B2F
:10083000D18B278E02D07EC0E3DFC081D18101C081
:10084000DFDFC48BD58B089584819581A685B7851C
:10085000C485D5850895D4DF25D038F0C489D589DD
:1008600050D020F08991C48BD58B089521968FEFBD
:100870000894F9CFC5DF868F15D090F053D0C4818E
:10088000D5812197A489B589CA23DB231196A48B2E
:10089000B58BA485B585CA0FDB1F868D88838894A8
:1008A0000895AEDF048810800114058811800104CA
:1008B00040F004881280011405881380010419F0A7
:1008C00010F008940895889408959ADFC489D58912
:1008D000A685B785CA17DB0730F0A089B189CA178A
:1008E000DB0719F010F0089408958894089588DFC4
:1008F000C685D78506D0A78DAE7F08F4A160A78FE7
:100900000895C034B0E1DB0748F0D63148F0D03666
:1009100028F0D03828F0D03908F002C008940895A3
:1009200088940895D3DF10F403D004D0089568DFCD
:100930002BD026C0C489D58902881388C021D12133
:10094000C687D78784819581C80FD91F2197C08B0F
:10095000D18BCEDF40F0A685B785C485D5850D90B7
:1009600009920197E1F70895078C00FC07C06CDF3E
:1009700009901D90011419F40197D1F71894089566
:10098000F3DF09F050CC0895078C00FC08955CDF7C
:1009900009901D90102001103FCC0197C9F70895D0
:1009A00090E0809102108370E1F78DE984BF90930D
:1009B0000010089506880F9207880F920895008C02
:1009C0000F92018C0F9208952860AA9AFF93F4E683
:1009D0009BDDFA95E9F7FF910895277F95CD9894CF
:1009E0000895089508950000FFFF010000002D0004
:1009F000000000A0FFFF0002080266015FE1009016
:100A0000FF9F0002080262025BE10014FF15010073
:100A1000181265035EE180109F1020000802630435
:100A20005CE100111F11010000007305000050106F
:100A3000581001000000750600000060FF6700020A
:100A4000000061075AE140104F10010000006C08DF
:100A5000000000110011010000002D09000074DEEB
:100A6000A0930469B0930569C0930669D0930769A0
:100A70000895F5DF01C09894E0ED09F4E6ED0ED09D
:100A800090910769809106695BDD9091056980917D
:100A9000046956DD02C0E0ED01C0ECEDFCE005911B
:100AA000002311F066DDFBCF08954EDDC5DEF3DFD8
:100AB000A7DE8489958900E1080F090FF02EE2E98D
:100AC00064DDC9DE38F0082FF00E2CDD99DE0489D4
:100AD0000F70B9F7E0DFF1940F2D24DDE2DE40F76F
:100AE0000895AADE12DE23CF05D00091316900936C
:100AF000006908955DDE81DE86CE64DE7EDE83CE13
:100B0000E89404C06894CA0FDB1F00C0EF93FF9302
:100B10006FEF7FEFCB01FF27A8950EF019900EF431
:100B20001A9008941794062E0F1E96958795779520
:100B3000679500FE08C0EDEE9E27E8EB8E27E3E800
:100B40007E27E0E26E27169471F7119728F79095AB
:100B50008095709560950E01DB01EC01862387235B
:100B600089238095FF91EF910895FFFFFFFFFFFF1D
:100C0000A1811B5B34316D2E2E2E5B524553455412
:100C10002D885DA11B5B34346D2E2E2E5B524F4D03
:100C20002E4558542E6E656F5D00A1814944205BAE
:100C3000905D814C3A208708523A201B5B33326D1D
:100C40004531355230303031A1533A208705553A7D
:100C500020870681413A208707423A20C702433A5B
:100C6000208704453A208703463A20870181524F66
:100C70004D205B987C527C537C645D202D205B6111
:100C80007C627C637C657C667C6C7C737C755D3E81
:100C90002000813A31301B5B39346DA81B5B393041
:100CA0006D3030A0000081811B5B34356D2E2E2EFF
:100CB0005B4572726F722023885DA0202D203C62FC
:100CC0007265616B3E20746F20726573756D65008F
:100CD0001B5B39306D001B5B33326D001B5B6D009D
:100CE000A1811B5B34346D5B532D3E5D0000A181FF
:100CF0001B5B34346D5B3C2D525D0000FFFFFFFF3A
:100F0000005EBCE2613FDD83C29C7E20A3FD1F41E9
:100F10009DC3217FFCA2401E5F01E3BD3E6082DCD9
:100F2000237D9FC1421CFEA0E1BF5D0380DE3C62C9
:100F3000BEE0025CDF81633D7C22C09E1D43A1FFB9
:100F40004618FAA427799BC584DA3866E5BB5907A9
:100F5000DB856739BAE406581947A5FB7826C49A99
:100F6000653BD987045AB8E6A7F91B45C6987A2489
:100F7000F8A6441A99C7257B3A6486D85B05E7B979
:100F80008CD2306EEDB3510F4E10F2AC2F7193CD69
:100F9000114FADF3702ECC92D38D6F31B2EC0E5059
:100FA000AFF1134DCE90722C6D33D18F0C52B0EE49
:100FB000326C8ED0530DEFB1F0AE4C1291CF2D7339
:100FC000CA947628ABF517490856B4EA6937D58B29
:100FD0005709EBB536688AD495CB2977F4AA481619
:100FE000E9B7550B88D6346A2B7597C94A14F6A809
:100FF000742AC896154BA9F7B6E80A54D7896B35F9
:1010000087C0FFCFFFC7FFCFFFC7FFCFFFC7FFCF0F
:10101000FFC7FFCFFFC7FFCFFFC7FFCFFFC7FFCF80
:10102000FFC7FFCFFFC7FFCFFFC7FFCFFFC7FFCF70
:10103000FFC7FFCFFFC7FFCFFFC7FFCFFFC7FFCF60
:10104000FFC7FFCFFFC7FFCFFFC7FFCFFFC7FFCF50
:10105000FFC7FFCFFFC7FFCFFFC7FFCFFFC7FFCF40
:10106000FFC7FFCFFFC7FFCFFFC7FFCFFFC7FFCF30
:10107000FFC7FFCFFFC7FFCFFFC7FFCFFFC7FFCF20
:10108000FFC7FFCFFFC7FFCFFFC7FFCFFFC7FFCF10
:10109000FFC7FFCFFFC7FFCFFFC7FFCFFFC7FFCF00
:1010A000FFC7FFCFFFC7FFCFFFC7FFCFFFC7FFCFF0
:1010B000FFC7FFCFFFC7FFCFFFC7FFCFFFC7FFCFE0
:1010C000FFC7FFCFFFC7FFCFFFC7FFCFFFC7FFCFD0
:1010D000FFC7FFCFFFC7FFCFFFC7FFCFFFC7FFCFC0
:1010E000FFC7FFCFFFC7FFCFFFC7FFCFFFC7FFCFB0
:1010F000FFC7FFCFFFC7FFCFFFC7FFCFFFC7FFCFA0
:1011000001005BE101000000C8AC1E6695CAAA4957
:10111000F8943324E8EDF0E0E4BFF0931001EFE140
:10112000F9E6EDBFFEBFE0E0F9E6C2E4D2E03192BD
:101130002197E9F73092000AE0E0FBE03082358247
:10114000E2E2FBE642D0C2E2D9E641D0C1E041D0C2
:101150002ED009F455C7E2E032C00C9408000C947C
:1011600009000C940A000C940B000C940C000C94D5
:101170000D000C940E000C940F000C9410000C94B5
:1011800011000C9412000C9413000C9414000C9495
:1011900015000C9416000C9417000C9418000C9475
:1011A00019000C941A000C941B000C941C000C9455
:1011B0001D000C941E000C941F000C9420000C9435
:1011C00021000C9422000C9423000C9424000C9415
:1011D00025000C9426000C9427000C9428000C94F5
:1011E00029000C942A000C942B000C942C000C94D5
:1011F0002D000C942E000C942F000C9430000C94B5
:1012000031000C9432000C9433000C9434000C9494
:1012100035000C9436000C9437000C9438000C9474
:1012200039000C943A000C943B000C943C000C9454
:101230003D00E2E0F2E000C0EF23F095009020696D
:101240000F22E02904C0E0E002C0EFEF00C0E0930D
:10125000206900C0E09120690C94B708EF23F09555
:10126000009021690F22E02906C0E0E004C0E5E516
:1012700002C0EFEF00C0E093216900C0E091216956
:101280000C94B508FFFFFFFFFFFFFFFFFFFFFFFF0D
:102000008AC0000081E084C082E082C083E080C09A
:1020100084E07EC085E07CC086E07AC087E078C03E
:1020200088E076C089E074C08AE072C08BE070C03E
:102030008CE06EC036C300008EE06AC08FE068C0DE
:1020400080E166C081E164C082E162C083E160C07A
:1020500084E15EC085E15CC086E15AC087E158C07A
:1020600088E156C089E154C08AE152C08BE150C07A
:102070008CE14EC09CC200008EE14AC08FE148C096
:1020800080E246C081E244C082E242C083E240C0B6
:1020900084E23EC085E23CC086E23AC087E238C0B6
:1020A00088E236C089E234C08AE232C08BE230C0B6
:1020B0008CE22EC08DE22CC08EE22AC08FE228C0B6
:1020C00080E326C081E324C082E322C083E320C0F2
:1020D00084E31EC085E31CC086E31AC087E318C0F2
:1020E00088E316C089E314C08AE312C08BE310C0F2
:1020F0008CE30EC08DE30CC08EE30AC08FE308C0F2
:1021000001005FE102010000C8AC1E667BA97BC034
:102110000C9481111895F8942224E8EDE093340092
:10212000E5E8E0930110E8EDE4BF20921001AAE099
:102130004A2EA3E05A2EE0E0F9E6CDE0D1E021926C
:102140002197E9F7A0910101A0FDFCCFA8EDB8E02F
:10215000A0933400B0930001A0915101A0FDFCCFE9
:10216000A1E2A0935001A0914101A2FDFCCFA0E00B
:10217000B0E4A0934A01B0934B01AFE0B9E6ADBF24
:10218000BEBFA8EDB4E2A0933400B0936800A5E30D
:10219000A0930006A0E0A0930106ABE0A093020686
:1021A000A0E0A0930306A0E0A0930406A0E0A09303
:1021B0000506A2E4A0930806A5E8A093A000E1E428
:1021C000E0931202E3E0E0933F02E0934102A1E0DA
:1021D000A093010BA1E0A093040BACE0B0E0A093AE
:1021E0000C0BB0930D0BA1E0A093000BA1E0A0930A
:1021F000110BA1E0A093150BA1E1A093140BA3EF89
:10220000B0E0A0931C0BB0931D0BA1E0A093100BAA
:10221000A8E0A093510441984A98429A94D08CD156
:10222000C0E0DAE6E0E0F5E1A5E56A2E6627AC9AC3
:10223000A0910060A33C21F0AA95A0930060C3D2B6
:10224000B0D2BFD2AED2AC98B8E0519BFECF51997C
:10225000FECFBA95D1F7A0910101A0FDFCCFA8ED6A
:10226000BBE0A0933400B09300012CBA10C20C94D0
:1022700008000C9409000C940A000C940B000C94B8
:102280000C000C940D000C940E000C940F000C9498
:1022900010000C9411000C9412000C9413000C9478
:1022A00014000C9415000C9416000C9417000C9458
:1022B00018000C9419000C941A000C941B000C9438
:1022C0001C000C941D000C941E000C941F000C9418
:1022D00020000C9421000C9422000C9423000C94F8
:1022E00024000C9425000C9426000C9427000C94D8
:1022F00028000C9429000C942A000C942B000C94B8
:102300002C000C942D000C942E000C942F000C9497
:1023100030000C9431000C9432000C9433000C9477
:1023200034000C9435000C9436000C9437000C9457
:1023300038000C9439000C943A000C943B000C9437
:102340003C000C943D007DD0F0991ED0F1991ED038
:10235000F2991FD0F39922D0EEB3E21103C0F89B9B
:10236000F99920D0E4E0E0937004E0937204E093E4
:102370007404E0937604E0937104E0937304E093B3
:102380007504E0937704089557D05BC07FD069D07F
:1023900058C0EFEFE093156964D053C020921569DF
:1023A00060D04FC020924608A89A00C0A09A06D0DC
:1023B00017D0E2ECE0934608A09A0895A89800C0D0
:1023C000B3990895A89A00C0B39B0895A89800C037
:1023D000B3990895A89A00C0B39B0895D5DF12C0A1
:1023E000A89800C0B1990895A89A00C0B19B08951B
:1023F000A89800C0B1990895A89A00C0B19B08950B
:10240000C5DF00C0992782E031978209E9F7AC9ACD
:1024100082E031978209E9F7AC98A895B39999279A
:10242000B19999279A9579F76CCF0090021001FC29
:10243000FCCF00FCFACF089580E322D02092001454
:102440001EC0E0E0F4E1C4E1D9E613D0E0911469E4
:10245000EC3008F0ECE0E09314693E2E32103A9430
:10246000089583E10DD0E4E1F9E6C0E0D4E101D0C4
:1024700006C080E1019009928A95E1F7089581E014
:10248000D4DF9DE994BF80930010CFCFE5E56E2E99
:102490006627A4D13324E5E8E093A0003AD0A4E273
:1024A000B9E6C0ECD4EAE991F5E1099599918991F1
:1024B00019D08E9333D0C43EB1F730921469089589
:1024C0008407057805076C0503600501540305487A
:1024D00001053C07033003072401031803010C071F
:1024E00001000107909308068093090681E080931C
:1024F0000D0681E080930A0680910D0680FFFCCFD7
:10250000909110068091110697FD839587FD8FE7C6
:10251000089520921669209217690895853508F468
:10252000339490911669991F909316699091176949
:10253000991F90931769089580911569C4E4DBEAA7
:102540008211C2E38211DBEA65D1C6E5DBEA62D122
:102550008091146967D1C4E6DBEA5CD1C8E1D9E6B1
:1025600089915ED1C432E1F7C2E7DBEA53D18091B1
:10257000176958D18091166955D161C144E0A8E02E
:10258000BFEF409251040090060B0092060BC2DD93
:102590000995B3992CBAB1992CBA0CB20A940CBA19
:1025A00009F4AFCE20921A0B20921B0BF1CFA0930F
:1025B0005104B0934904AEDDA091060BA093060B25
:1025C0004093A704519BFECF09950090060B009203
:1025D000060B0694AA1F4093A704519BFECF0995B2
:1025E0000090060B0092060B0694AA1F4093A704C6
:1025F000519BFECF09950090060B0092060B0694A6
:10260000AA1F4093A704519BFECF09950090060B8B
:102610000092060B0694AA1F4093A704519BFECF7D
:1026200009950090060B0092060B0694AA1F409392
:10263000A704519BFECF09950090060B0092060B54
:102640000694AA1F4093A704519BFECF0995C3157A
:1026500099F00090060B0092060B0694AA1F409377
:10266000A704519BFECFA9930995A091060BA093B7
:10267000060B4093A704A6CF509230020090060BA1
:102680000092060B0694AA1FA993F89400C074D078
:1026900078940000F89400C000C000C000C00000A2
:1026A000F6CF0995A0911469A21120923002A8E0FA
:1026B000A0935104A895C0E0DAE600000995AFEFB9
:1026C0000000A093A306009016691090176900C03F
:1026D00000C0099500FC799000C000C001FC899001
:1026E00000C000C0099502FC999000C000C003FC26
:1026F000A99000C000C0099504FCB99000C000C0BA
:1027000005FCC99000C000C0099506FCD99000C026
:1027100000C007FCE99000C000C0099510FCF990CA
:1027200000C000C011FC099100C000C0099512FC56
:10273000199100C000C013FC299100C000C0099588
:10274000AFE0B9E6ADBFBEBF00C000C000C000C072
:1027500000C00995AEE2A093420800C000C000C0CE
:1027600000C000C0000008D0C0E0DAE60090160B00
:102770000092160B099502CF0995A0914301A093F1
:102780004301A0FF0BC000C000C000000995A0E1FC
:10279000A093A70400C000C000C0000000C000C09B
:1027A0000994A2E3B0E003C0A6E9B0E000C0099537
:1027B000009053010092530100FEF9CF1197B9F731
:1027C000089509D002C00AD000C0BCE0E0E009953D
:1027D000BA95E9F70895CCEFD7EA03C0C8E0D8EA84
:1027E00000C0799089909990A990B990C990D9909A
:1027F000E990F9900991199129910895000000003C
:102800000000000000000000FFFFFFFFFFFFFFFFD0
:10281000FFFFFFFF8991821115D08211FBCF089530
:1028200001D00BC08F93829502D08F9100C08F7022
:102830008A3008F0895D805D05C080E203C0C0E891
:10284000DBEAE8CF0090440805FEFCCF8093420805
:102850000895FFFFFFFFFFFFFFFFFFFFFFFFFFFFE9
:102A000000002DB86CB82CB8671531E03DB931E441
:102A100008F43CB9ECE0089500002DB86CB82CB86F
:102A2000681530E43DB931E408F43CB9E8E10895B3
:102A300000002DB86CB82CB8691534E03DB935E00C
:102A400008F43CB9E4E2089500002DB86CB82CB845
:102A50006A1531E03DB935E008F43CB9E0E308958A
:102A60003FEF3DB96CB82CB86B1534E03DB934E498
:102A700008F43CB9ECE308953FEF3DB96CB82CB8CD
:102A80006C1530E43DB934E408F43CB9E8E4089549
:102A90003FEF3DB96CB82CB86D1531E03DB931E16F
:102AA00008F43CB9E4E508953FEF3DB96CB82CB8A3
:102AB0006E1534E03DB934E108F43CB9E0E6089520
:102AC0003FEF3DB96CB82CB86F1530E13DB931E13D
:102AD00008F43CB9ECE608953FEF3DB96CB82CB86A
:102AE000601730E13DB934E108F43CB9E8E70895F6
:102AF0003FEF3DB96CB82CB8611730E13DB930E516
:102B000008F43CB9E4E808953FEF3DB96CB82CB83F
:102B1000621730E43DB930E508F43CB9E0E90895C6
:102B20002DB86CB86A95E0E000C000C000C000009D
:102B300008950D0A0A55736573204441433A2020D5
:102B40006E6F00000D0A0A55736573204441433AC5
:102B50002020796573000D0A4C454420636F756E23
:102B6000743A20000D0A4144435B302D31315D3A07
:102B700020000D0A4C4544206D61736B3A20200003
:102B80000A0D0000150B00000101401500851069B9
:102B90000001010340150085116900010103401582
:102BA00000851269000101034015008513690001C9
:102BB00000404015008500000002FFFFFFFFFFFFFF
:00000001FF
